{
	"data": {
		"bytecode": {
			"linkReferences": {
				"iterableFunderMapping.sol": {
					"IterableFunderMapping": [
						{
							"length": 20,
							"start": 374
						},
						{
							"length": 20,
							"start": 526
						},
						{
							"length": 20,
							"start": 685
						},
						{
							"length": 20,
							"start": 849
						},
						{
							"length": 20,
							"start": 1054
						},
						{
							"length": 20,
							"start": 1540
						},
						{
							"length": 20,
							"start": 1694
						},
						{
							"length": 20,
							"start": 1945
						},
						{
							"length": 20,
							"start": 2107
						},
						{
							"length": 20,
							"start": 2358
						},
						{
							"length": 20,
							"start": 2625
						},
						{
							"length": 20,
							"start": 2764
						},
						{
							"length": 20,
							"start": 2909
						},
						{
							"length": 20,
							"start": 3068
						}
					]
				}
			},
			"object": "608060405234801561001057600080fd5b506112e2806100206000396000f3fe6080604052600436106100555760003560e01c806310fe7c481461005a5780632f4efc1f1461008a578063481c6a75146100b5578063b39e12cf146100e0578063f4e41246146100f7578063fb4a2b7a14610127575b600080fd5b610074600480360381019061006f9190610d41565b610152565b6040516100819190610ed8565b60405180910390f35b34801561009657600080fd5b5061009f6104c7565b6040516100ac91906110e2565b60405180910390f35b3480156100c157600080fd5b506100ca610577565b6040516100d79190610ebd565b60405180910390f35b3480156100ec57600080fd5b506100f561059d565b005b610111600480360381019061010c9190610d93565b6105e0565b60405161011e9190610ed8565b60405180910390f35b34801561013357600080fd5b5061013c6109c0565b60405161014991906110e2565b60405180910390f35b600073__$309b585dd12d37ec9a8f323e99e3cdcfc0$__63c7df6ce46000336040518363ffffffff1660e01b815260040161018e929190610f0e565b60206040518083038186803b1580156101a657600080fd5b505af41580156101ba573d6000803e3d6000fd5b505050506040513d601f19601f820116820180604052508101906101de9190610d18565b156103265760018214156102825773__$309b585dd12d37ec9a8f323e99e3cdcfc0$__63edbc4aa76000336001346040518563ffffffff1660e01b815260040161022b9493929190610f6e565b60206040518083038186803b15801561024357600080fd5b505af4158015610257573d6000803e3d6000fd5b505050506040513d601f19601f8201168201806040525081019061027b9190610d18565b90506104c2565b60028214156103215773__$309b585dd12d37ec9a8f323e99e3cdcfc0$__63edbc4aa76000336003346040518563ffffffff1660e01b81526004016102ca9493929190610ff8565b60206040518083038186803b1580156102e257600080fd5b505af41580156102f6573d6000803e3d6000fd5b505050506040513d601f19601f8201168201806040525081019061031a9190610d18565b90506104c2565b6104c1565b60018214156103f35773__$309b585dd12d37ec9a8f323e99e3cdcfc0$__63fa99803b60003360405180606001604052803373ffffffffffffffffffffffffffffffffffffffff16815260200134815260200160008152506040518463ffffffff1660e01b815260040161039c93929190611082565b60206040518083038186803b1580156103b457600080fd5b505af41580156103c8573d6000803e3d6000fd5b505050506040513d601f19601f820116820180604052508101906103ec9190610d18565b90506104c2565b60028214156104c05773__$309b585dd12d37ec9a8f323e99e3cdcfc0$__63fa99803b60003360405180606001604052803373ffffffffffffffffffffffffffffffffffffffff16815260200160008152602001348152506040518463ffffffff1660e01b815260040161046993929190611082565b60206040518083038186803b15801561048157600080fd5b505af4158015610495573d6000803e3d6000fd5b505050506040513d601f19601f820116820180604052508101906104b99190610d18565b90506104c2565b5b5b919050565b6000600460009054906101000a900473ffffffffffffffffffffffffffffffffffffffff1673ffffffffffffffffffffffffffffffffffffffff163373ffffffffffffffffffffffffffffffffffffffff161461052357600080fd5b60006003600181548110610560577f4e487b7100000000000000000000000000000000000000000000000000000000600052603260045260246000fd5b906000526020600020016000015490508091505090565b600460009054906101000a900473ffffffffffffffffffffffffffffffffffffffff1681565b33600460006101000a81548173ffffffffffffffffffffffffffffffffffffffff021916908373ffffffffffffffffffffffffffffffffffffffff160217905550565b600073__$309b585dd12d37ec9a8f323e99e3cdcfc0$__63c7df6ce46000336040518363ffffffff1660e01b815260040161061c929190610f0e565b60206040518083038186803b15801561063457600080fd5b505af4158015610648573d6000803e3d6000fd5b505050506040513d601f19601f8201168201806040525081019061066c9190610d18565b156109b057600183141561080e57600073__$309b585dd12d37ec9a8f323e99e3cdcfc0$__630722de8b60003360016040518463ffffffff1660e01b81526004016106b993929190610f37565b60206040518083038186803b1580156106d157600080fd5b505af41580156106e5573d6000803e3d6000fd5b505050506040513d601f19601f820116820180604052508101906107099190610d6a565b90508281101561071857600080fd5b346003600181548110610754577f4e487b7100000000000000000000000000000000000000000000000000000000600052603260045260246000fd5b9060005260206000200160000160008282546107709190611153565b9250508190555073__$309b585dd12d37ec9a8f323e99e3cdcfc0$__63edbc4aa76000336002876040518563ffffffff1660e01b81526004016107b69493929190610fb3565b60206040518083038186803b1580156107ce57600080fd5b505af41580156107e2573d6000803e3d6000fd5b505050506040513d601f19601f820116820180604052508101906108069190610d18565b9150506109ba565b60028314156109ab57600073__$309b585dd12d37ec9a8f323e99e3cdcfc0$__630722de8b60003360016040518463ffffffff1660e01b815260040161085693929190610f37565b60206040518083038186803b15801561086e57600080fd5b505af4158015610882573d6000803e3d6000fd5b505050506040513d601f19601f820116820180604052508101906108a69190610d6a565b9050828110156108b557600080fd5b3460036002815481106108f1577f4e487b7100000000000000000000000000000000000000000000000000000000600052603260045260246000fd5b90600052602060002001600001600082825461090d9190611153565b9250508190555073__$309b585dd12d37ec9a8f323e99e3cdcfc0$__63edbc4aa76000336004876040518563ffffffff1660e01b8152600401610953949392919061103d565b60206040518083038186803b15801561096b57600080fd5b505af415801561097f573d6000803e3d6000fd5b505050506040513d601f19601f820116820180604052508101906109a39190610d18565b9150506109ba565b6109b9565b600090506109ba565b5b92915050565b6000600460009054906101000a900473ffffffffffffffffffffffffffffffffffffffff1673ffffffffffffffffffffffffffffffffffffffff163373ffffffffffffffffffffffffffffffffffffffff1614610a1c57600080fd5b60008073__$309b585dd12d37ec9a8f323e99e3cdcfc0$__637aba1de460006040518263ffffffff1660e01b8152600401610a579190610ef3565b60206040518083038186803b158015610a6f57600080fd5b505af4158015610a83573d6000803e3d6000fd5b505050506040513d601f19601f82011682018060405250810190610aa79190610d6a565b90505b73__$309b585dd12d37ec9a8f323e99e3cdcfc0$__638a84cc0e6000836040518363ffffffff1660e01b8152600401610ae49291906110b9565b60206040518083038186803b158015610afc57600080fd5b505af4158015610b10573d6000803e3d6000fd5b505050506040513d601f19601f82011682018060405250810190610b349190610d18565b15610c6b57600073__$309b585dd12d37ec9a8f323e99e3cdcfc0$__637c6f403b6000846040518363ffffffff1660e01b8152600401610b759291906110b9565b604080518083038186803b158015610b8c57600080fd5b505af4158015610ba0573d6000803e3d6000fd5b505050506040513d601f19601f82011682018060405250810190610bc49190610cdc565b915050806002015483610bd791906110fd565b92505073__$309b585dd12d37ec9a8f323e99e3cdcfc0$__631ca74edb6000836040518363ffffffff1660e01b8152600401610c149291906110b9565b60206040518083038186803b158015610c2c57600080fd5b505af4158015610c40573d6000803e3d6000fd5b505050506040513d601f19601f82011682018060405250810190610c649190610d6a565b9050610aaa565b508091505090565b600081519050610c8281611250565b92915050565b600081519050610c9781611267565b92915050565b600081519050610cac8161127e565b92915050565b600081359050610cc181611295565b92915050565b600081519050610cd681611295565b92915050565b60008060408385031215610cef57600080fd5b6000610cfd85828601610c73565b9250506020610d0e85828601610c9d565b9150509250929050565b600060208284031215610d2a57600080fd5b6000610d3884828501610c88565b91505092915050565b600060208284031215610d5357600080fd5b6000610d6184828501610cb2565b91505092915050565b600060208284031215610d7c57600080fd5b6000610d8a84828501610cc7565b91505092915050565b60008060408385031215610da657600080fd5b6000610db485828601610cb2565b9250506020610dc585828601610cb2565b9150509250929050565b610dd881611187565b82525050565b610de781611187565b82525050565b610df681611187565b82525050565b610e0581611199565b82525050565b610e14816111d9565b82525050565b610e23816111eb565b82525050565b610e32816111fd565b82525050565b610e418161120f565b82525050565b606082016000820151610e5d6000850182610ded565b506020820151610e706020850182610eae565b506040820151610e836040850182610eae565b50505050565b8082525050565b610e99816111cf565b82525050565b610ea8816111cf565b82525050565b610eb7816111cf565b82525050565b6000602082019050610ed26000830184610dcf565b92915050565b6000602082019050610eed6000830184610dfc565b92915050565b6000602082019050610f086000830184610e89565b92915050565b6000604082019050610f236000830185610e89565b610f306020830184610dde565b9392505050565b6000606082019050610f4c6000830186610e89565b610f596020830185610dde565b610f666040830184610e0b565b949350505050565b6000608082019050610f836000830187610e89565b610f906020830186610dde565b610f9d6040830185610e0b565b610faa6060830184610e9f565b95945050505050565b6000608082019050610fc86000830187610e89565b610fd56020830186610dde565b610fe26040830185610e1a565b610fef6060830184610e9f565b95945050505050565b600060808201905061100d6000830187610e89565b61101a6020830186610dde565b6110276040830185610e29565b6110346060830184610e9f565b95945050505050565b60006080820190506110526000830187610e89565b61105f6020830186610dde565b61106c6040830185610e38565b6110796060830184610e9f565b95945050505050565b600060a0820190506110976000830186610e89565b6110a46020830185610dde565b6110b16040830184610e47565b949350505050565b60006040820190506110ce6000830185610e89565b6110db6020830184610e9f565b9392505050565b60006020820190506110f76000830184610e90565b92915050565b6000611108826111cf565b9150611113836111cf565b9250827fffffffffffffffffffffffffffffffffffffffffffffffffffffffffffffffff0382111561114857611147611221565b5b828201905092915050565b600061115e826111cf565b9150611169836111cf565b92508282101561117c5761117b611221565b5b828203905092915050565b6000611192826111af565b9050919050565b60008115159050919050565b6000819050919050565b600073ffffffffffffffffffffffffffffffffffffffff82169050919050565b6000819050919050565b60006111e4826111cf565b9050919050565b60006111f6826111cf565b9050919050565b6000611208826111cf565b9050919050565b600061121a826111cf565b9050919050565b7f4e487b7100000000000000000000000000000000000000000000000000000000600052601160045260246000fd5b61125981611187565b811461126457600080fd5b50565b61127081611199565b811461127b57600080fd5b50565b611287816111a5565b811461129257600080fd5b50565b61129e816111cf565b81146112a957600080fd5b5056fea264697066735822122050ac9c460a48651160aa17a08789422bece46c49f5e471372e9068d47c5a86f264736f6c63430008030033",
			"opcodes": "PUSH1 0x80 PUSH1 0x40 MSTORE CALLVALUE DUP1 ISZERO PUSH2 0x10 JUMPI PUSH1 0x0 DUP1 REVERT JUMPDEST POP PUSH2 0x12E2 DUP1 PUSH2 0x20 PUSH1 0x0 CODECOPY PUSH1 0x0 RETURN INVALID PUSH1 0x80 PUSH1 0x40 MSTORE PUSH1 0x4 CALLDATASIZE LT PUSH2 0x55 JUMPI PUSH1 0x0 CALLDATALOAD PUSH1 0xE0 SHR DUP1 PUSH4 0x10FE7C48 EQ PUSH2 0x5A JUMPI DUP1 PUSH4 0x2F4EFC1F EQ PUSH2 0x8A JUMPI DUP1 PUSH4 0x481C6A75 EQ PUSH2 0xB5 JUMPI DUP1 PUSH4 0xB39E12CF EQ PUSH2 0xE0 JUMPI DUP1 PUSH4 0xF4E41246 EQ PUSH2 0xF7 JUMPI DUP1 PUSH4 0xFB4A2B7A EQ PUSH2 0x127 JUMPI JUMPDEST PUSH1 0x0 DUP1 REVERT JUMPDEST PUSH2 0x74 PUSH1 0x4 DUP1 CALLDATASIZE SUB DUP2 ADD SWAP1 PUSH2 0x6F SWAP2 SWAP1 PUSH2 0xD41 JUMP JUMPDEST PUSH2 0x152 JUMP JUMPDEST PUSH1 0x40 MLOAD PUSH2 0x81 SWAP2 SWAP1 PUSH2 0xED8 JUMP JUMPDEST PUSH1 0x40 MLOAD DUP1 SWAP2 SUB SWAP1 RETURN JUMPDEST CALLVALUE DUP1 ISZERO PUSH2 0x96 JUMPI PUSH1 0x0 DUP1 REVERT JUMPDEST POP PUSH2 0x9F PUSH2 0x4C7 JUMP JUMPDEST PUSH1 0x40 MLOAD PUSH2 0xAC SWAP2 SWAP1 PUSH2 0x10E2 JUMP JUMPDEST PUSH1 0x40 MLOAD DUP1 SWAP2 SUB SWAP1 RETURN JUMPDEST CALLVALUE DUP1 ISZERO PUSH2 0xC1 JUMPI PUSH1 0x0 DUP1 REVERT JUMPDEST POP PUSH2 0xCA PUSH2 0x577 JUMP JUMPDEST PUSH1 0x40 MLOAD PUSH2 0xD7 SWAP2 SWAP1 PUSH2 0xEBD JUMP JUMPDEST PUSH1 0x40 MLOAD DUP1 SWAP2 SUB SWAP1 RETURN JUMPDEST CALLVALUE DUP1 ISZERO PUSH2 0xEC JUMPI PUSH1 0x0 DUP1 REVERT JUMPDEST POP PUSH2 0xF5 PUSH2 0x59D JUMP JUMPDEST STOP JUMPDEST PUSH2 0x111 PUSH1 0x4 DUP1 CALLDATASIZE SUB DUP2 ADD SWAP1 PUSH2 0x10C SWAP2 SWAP1 PUSH2 0xD93 JUMP JUMPDEST PUSH2 0x5E0 JUMP JUMPDEST PUSH1 0x40 MLOAD PUSH2 0x11E SWAP2 SWAP1 PUSH2 0xED8 JUMP JUMPDEST PUSH1 0x40 MLOAD DUP1 SWAP2 SUB SWAP1 RETURN JUMPDEST CALLVALUE DUP1 ISZERO PUSH2 0x133 JUMPI PUSH1 0x0 DUP1 REVERT JUMPDEST POP PUSH2 0x13C PUSH2 0x9C0 JUMP JUMPDEST PUSH1 0x40 MLOAD PUSH2 0x149 SWAP2 SWAP1 PUSH2 0x10E2 JUMP JUMPDEST PUSH1 0x40 MLOAD DUP1 SWAP2 SUB SWAP1 RETURN JUMPDEST PUSH1 0x0 PUSH20 0x0 PUSH4 0xC7DF6CE4 PUSH1 0x0 CALLER PUSH1 0x40 MLOAD DUP4 PUSH4 0xFFFFFFFF AND PUSH1 0xE0 SHL DUP2 MSTORE PUSH1 0x4 ADD PUSH2 0x18E SWAP3 SWAP2 SWAP1 PUSH2 0xF0E JUMP JUMPDEST PUSH1 0x20 PUSH1 0x40 MLOAD DUP1 DUP4 SUB DUP2 DUP7 DUP1 EXTCODESIZE ISZERO DUP1 ISZERO PUSH2 0x1A6 JUMPI PUSH1 0x0 DUP1 REVERT JUMPDEST POP GAS DELEGATECALL ISZERO DUP1 ISZERO PUSH2 0x1BA JUMPI RETURNDATASIZE PUSH1 0x0 DUP1 RETURNDATACOPY RETURNDATASIZE PUSH1 0x0 REVERT JUMPDEST POP POP POP POP PUSH1 0x40 MLOAD RETURNDATASIZE PUSH1 0x1F NOT PUSH1 0x1F DUP3 ADD AND DUP3 ADD DUP1 PUSH1 0x40 MSTORE POP DUP2 ADD SWAP1 PUSH2 0x1DE SWAP2 SWAP1 PUSH2 0xD18 JUMP JUMPDEST ISZERO PUSH2 0x326 JUMPI PUSH1 0x1 DUP3 EQ ISZERO PUSH2 0x282 JUMPI PUSH20 0x0 PUSH4 0xEDBC4AA7 PUSH1 0x0 CALLER PUSH1 0x1 CALLVALUE PUSH1 0x40 MLOAD DUP6 PUSH4 0xFFFFFFFF AND PUSH1 0xE0 SHL DUP2 MSTORE PUSH1 0x4 ADD PUSH2 0x22B SWAP5 SWAP4 SWAP3 SWAP2 SWAP1 PUSH2 0xF6E JUMP JUMPDEST PUSH1 0x20 PUSH1 0x40 MLOAD DUP1 DUP4 SUB DUP2 DUP7 DUP1 EXTCODESIZE ISZERO DUP1 ISZERO PUSH2 0x243 JUMPI PUSH1 0x0 DUP1 REVERT JUMPDEST POP GAS DELEGATECALL ISZERO DUP1 ISZERO PUSH2 0x257 JUMPI RETURNDATASIZE PUSH1 0x0 DUP1 RETURNDATACOPY RETURNDATASIZE PUSH1 0x0 REVERT JUMPDEST POP POP POP POP PUSH1 0x40 MLOAD RETURNDATASIZE PUSH1 0x1F NOT PUSH1 0x1F DUP3 ADD AND DUP3 ADD DUP1 PUSH1 0x40 MSTORE POP DUP2 ADD SWAP1 PUSH2 0x27B SWAP2 SWAP1 PUSH2 0xD18 JUMP JUMPDEST SWAP1 POP PUSH2 0x4C2 JUMP JUMPDEST PUSH1 0x2 DUP3 EQ ISZERO PUSH2 0x321 JUMPI PUSH20 0x0 PUSH4 0xEDBC4AA7 PUSH1 0x0 CALLER PUSH1 0x3 CALLVALUE PUSH1 0x40 MLOAD DUP6 PUSH4 0xFFFFFFFF AND PUSH1 0xE0 SHL DUP2 MSTORE PUSH1 0x4 ADD PUSH2 0x2CA SWAP5 SWAP4 SWAP3 SWAP2 SWAP1 PUSH2 0xFF8 JUMP JUMPDEST PUSH1 0x20 PUSH1 0x40 MLOAD DUP1 DUP4 SUB DUP2 DUP7 DUP1 EXTCODESIZE ISZERO DUP1 ISZERO PUSH2 0x2E2 JUMPI PUSH1 0x0 DUP1 REVERT JUMPDEST POP GAS DELEGATECALL ISZERO DUP1 ISZERO PUSH2 0x2F6 JUMPI RETURNDATASIZE PUSH1 0x0 DUP1 RETURNDATACOPY RETURNDATASIZE PUSH1 0x0 REVERT JUMPDEST POP POP POP POP PUSH1 0x40 MLOAD RETURNDATASIZE PUSH1 0x1F NOT PUSH1 0x1F DUP3 ADD AND DUP3 ADD DUP1 PUSH1 0x40 MSTORE POP DUP2 ADD SWAP1 PUSH2 0x31A SWAP2 SWAP1 PUSH2 0xD18 JUMP JUMPDEST SWAP1 POP PUSH2 0x4C2 JUMP JUMPDEST PUSH2 0x4C1 JUMP JUMPDEST PUSH1 0x1 DUP3 EQ ISZERO PUSH2 0x3F3 JUMPI PUSH20 0x0 PUSH4 0xFA99803B PUSH1 0x0 CALLER PUSH1 0x40 MLOAD DUP1 PUSH1 0x60 ADD PUSH1 0x40 MSTORE DUP1 CALLER PUSH20 0xFFFFFFFFFFFFFFFFFFFFFFFFFFFFFFFFFFFFFFFF AND DUP2 MSTORE PUSH1 0x20 ADD CALLVALUE DUP2 MSTORE PUSH1 0x20 ADD PUSH1 0x0 DUP2 MSTORE POP PUSH1 0x40 MLOAD DUP5 PUSH4 0xFFFFFFFF AND PUSH1 0xE0 SHL DUP2 MSTORE PUSH1 0x4 ADD PUSH2 0x39C SWAP4 SWAP3 SWAP2 SWAP1 PUSH2 0x1082 JUMP JUMPDEST PUSH1 0x20 PUSH1 0x40 MLOAD DUP1 DUP4 SUB DUP2 DUP7 DUP1 EXTCODESIZE ISZERO DUP1 ISZERO PUSH2 0x3B4 JUMPI PUSH1 0x0 DUP1 REVERT JUMPDEST POP GAS DELEGATECALL ISZERO DUP1 ISZERO PUSH2 0x3C8 JUMPI RETURNDATASIZE PUSH1 0x0 DUP1 RETURNDATACOPY RETURNDATASIZE PUSH1 0x0 REVERT JUMPDEST POP POP POP POP PUSH1 0x40 MLOAD RETURNDATASIZE PUSH1 0x1F NOT PUSH1 0x1F DUP3 ADD AND DUP3 ADD DUP1 PUSH1 0x40 MSTORE POP DUP2 ADD SWAP1 PUSH2 0x3EC SWAP2 SWAP1 PUSH2 0xD18 JUMP JUMPDEST SWAP1 POP PUSH2 0x4C2 JUMP JUMPDEST PUSH1 0x2 DUP3 EQ ISZERO PUSH2 0x4C0 JUMPI PUSH20 0x0 PUSH4 0xFA99803B PUSH1 0x0 CALLER PUSH1 0x40 MLOAD DUP1 PUSH1 0x60 ADD PUSH1 0x40 MSTORE DUP1 CALLER PUSH20 0xFFFFFFFFFFFFFFFFFFFFFFFFFFFFFFFFFFFFFFFF AND DUP2 MSTORE PUSH1 0x20 ADD PUSH1 0x0 DUP2 MSTORE PUSH1 0x20 ADD CALLVALUE DUP2 MSTORE POP PUSH1 0x40 MLOAD DUP5 PUSH4 0xFFFFFFFF AND PUSH1 0xE0 SHL DUP2 MSTORE PUSH1 0x4 ADD PUSH2 0x469 SWAP4 SWAP3 SWAP2 SWAP1 PUSH2 0x1082 JUMP JUMPDEST PUSH1 0x20 PUSH1 0x40 MLOAD DUP1 DUP4 SUB DUP2 DUP7 DUP1 EXTCODESIZE ISZERO DUP1 ISZERO PUSH2 0x481 JUMPI PUSH1 0x0 DUP1 REVERT JUMPDEST POP GAS DELEGATECALL ISZERO DUP1 ISZERO PUSH2 0x495 JUMPI RETURNDATASIZE PUSH1 0x0 DUP1 RETURNDATACOPY RETURNDATASIZE PUSH1 0x0 REVERT JUMPDEST POP POP POP POP PUSH1 0x40 MLOAD RETURNDATASIZE PUSH1 0x1F NOT PUSH1 0x1F DUP3 ADD AND DUP3 ADD DUP1 PUSH1 0x40 MSTORE POP DUP2 ADD SWAP1 PUSH2 0x4B9 SWAP2 SWAP1 PUSH2 0xD18 JUMP JUMPDEST SWAP1 POP PUSH2 0x4C2 JUMP JUMPDEST JUMPDEST JUMPDEST SWAP2 SWAP1 POP JUMP JUMPDEST PUSH1 0x0 PUSH1 0x4 PUSH1 0x0 SWAP1 SLOAD SWAP1 PUSH2 0x100 EXP SWAP1 DIV PUSH20 0xFFFFFFFFFFFFFFFFFFFFFFFFFFFFFFFFFFFFFFFF AND PUSH20 0xFFFFFFFFFFFFFFFFFFFFFFFFFFFFFFFFFFFFFFFF AND CALLER PUSH20 0xFFFFFFFFFFFFFFFFFFFFFFFFFFFFFFFFFFFFFFFF AND EQ PUSH2 0x523 JUMPI PUSH1 0x0 DUP1 REVERT JUMPDEST PUSH1 0x0 PUSH1 0x3 PUSH1 0x1 DUP2 SLOAD DUP2 LT PUSH2 0x560 JUMPI PUSH32 0x4E487B7100000000000000000000000000000000000000000000000000000000 PUSH1 0x0 MSTORE PUSH1 0x32 PUSH1 0x4 MSTORE PUSH1 0x24 PUSH1 0x0 REVERT JUMPDEST SWAP1 PUSH1 0x0 MSTORE PUSH1 0x20 PUSH1 0x0 KECCAK256 ADD PUSH1 0x0 ADD SLOAD SWAP1 POP DUP1 SWAP2 POP POP SWAP1 JUMP JUMPDEST PUSH1 0x4 PUSH1 0x0 SWAP1 SLOAD SWAP1 PUSH2 0x100 EXP SWAP1 DIV PUSH20 0xFFFFFFFFFFFFFFFFFFFFFFFFFFFFFFFFFFFFFFFF AND DUP2 JUMP JUMPDEST CALLER PUSH1 0x4 PUSH1 0x0 PUSH2 0x100 EXP DUP2 SLOAD DUP2 PUSH20 0xFFFFFFFFFFFFFFFFFFFFFFFFFFFFFFFFFFFFFFFF MUL NOT AND SWAP1 DUP4 PUSH20 0xFFFFFFFFFFFFFFFFFFFFFFFFFFFFFFFFFFFFFFFF AND MUL OR SWAP1 SSTORE POP JUMP JUMPDEST PUSH1 0x0 PUSH20 0x0 PUSH4 0xC7DF6CE4 PUSH1 0x0 CALLER PUSH1 0x40 MLOAD DUP4 PUSH4 0xFFFFFFFF AND PUSH1 0xE0 SHL DUP2 MSTORE PUSH1 0x4 ADD PUSH2 0x61C SWAP3 SWAP2 SWAP1 PUSH2 0xF0E JUMP JUMPDEST PUSH1 0x20 PUSH1 0x40 MLOAD DUP1 DUP4 SUB DUP2 DUP7 DUP1 EXTCODESIZE ISZERO DUP1 ISZERO PUSH2 0x634 JUMPI PUSH1 0x0 DUP1 REVERT JUMPDEST POP GAS DELEGATECALL ISZERO DUP1 ISZERO PUSH2 0x648 JUMPI RETURNDATASIZE PUSH1 0x0 DUP1 RETURNDATACOPY RETURNDATASIZE PUSH1 0x0 REVERT JUMPDEST POP POP POP POP PUSH1 0x40 MLOAD RETURNDATASIZE PUSH1 0x1F NOT PUSH1 0x1F DUP3 ADD AND DUP3 ADD DUP1 PUSH1 0x40 MSTORE POP DUP2 ADD SWAP1 PUSH2 0x66C SWAP2 SWAP1 PUSH2 0xD18 JUMP JUMPDEST ISZERO PUSH2 0x9B0 JUMPI PUSH1 0x1 DUP4 EQ ISZERO PUSH2 0x80E JUMPI PUSH1 0x0 PUSH20 0x0 PUSH4 0x722DE8B PUSH1 0x0 CALLER PUSH1 0x1 PUSH1 0x40 MLOAD DUP5 PUSH4 0xFFFFFFFF AND PUSH1 0xE0 SHL DUP2 MSTORE PUSH1 0x4 ADD PUSH2 0x6B9 SWAP4 SWAP3 SWAP2 SWAP1 PUSH2 0xF37 JUMP JUMPDEST PUSH1 0x20 PUSH1 0x40 MLOAD DUP1 DUP4 SUB DUP2 DUP7 DUP1 EXTCODESIZE ISZERO DUP1 ISZERO PUSH2 0x6D1 JUMPI PUSH1 0x0 DUP1 REVERT JUMPDEST POP GAS DELEGATECALL ISZERO DUP1 ISZERO PUSH2 0x6E5 JUMPI RETURNDATASIZE PUSH1 0x0 DUP1 RETURNDATACOPY RETURNDATASIZE PUSH1 0x0 REVERT JUMPDEST POP POP POP POP PUSH1 0x40 MLOAD RETURNDATASIZE PUSH1 0x1F NOT PUSH1 0x1F DUP3 ADD AND DUP3 ADD DUP1 PUSH1 0x40 MSTORE POP DUP2 ADD SWAP1 PUSH2 0x709 SWAP2 SWAP1 PUSH2 0xD6A JUMP JUMPDEST SWAP1 POP DUP3 DUP2 LT ISZERO PUSH2 0x718 JUMPI PUSH1 0x0 DUP1 REVERT JUMPDEST CALLVALUE PUSH1 0x3 PUSH1 0x1 DUP2 SLOAD DUP2 LT PUSH2 0x754 JUMPI PUSH32 0x4E487B7100000000000000000000000000000000000000000000000000000000 PUSH1 0x0 MSTORE PUSH1 0x32 PUSH1 0x4 MSTORE PUSH1 0x24 PUSH1 0x0 REVERT JUMPDEST SWAP1 PUSH1 0x0 MSTORE PUSH1 0x20 PUSH1 0x0 KECCAK256 ADD PUSH1 0x0 ADD PUSH1 0x0 DUP3 DUP3 SLOAD PUSH2 0x770 SWAP2 SWAP1 PUSH2 0x1153 JUMP JUMPDEST SWAP3 POP POP DUP2 SWAP1 SSTORE POP PUSH20 0x0 PUSH4 0xEDBC4AA7 PUSH1 0x0 CALLER PUSH1 0x2 DUP8 PUSH1 0x40 MLOAD DUP6 PUSH4 0xFFFFFFFF AND PUSH1 0xE0 SHL DUP2 MSTORE PUSH1 0x4 ADD PUSH2 0x7B6 SWAP5 SWAP4 SWAP3 SWAP2 SWAP1 PUSH2 0xFB3 JUMP JUMPDEST PUSH1 0x20 PUSH1 0x40 MLOAD DUP1 DUP4 SUB DUP2 DUP7 DUP1 EXTCODESIZE ISZERO DUP1 ISZERO PUSH2 0x7CE JUMPI PUSH1 0x0 DUP1 REVERT JUMPDEST POP GAS DELEGATECALL ISZERO DUP1 ISZERO PUSH2 0x7E2 JUMPI RETURNDATASIZE PUSH1 0x0 DUP1 RETURNDATACOPY RETURNDATASIZE PUSH1 0x0 REVERT JUMPDEST POP POP POP POP PUSH1 0x40 MLOAD RETURNDATASIZE PUSH1 0x1F NOT PUSH1 0x1F DUP3 ADD AND DUP3 ADD DUP1 PUSH1 0x40 MSTORE POP DUP2 ADD SWAP1 PUSH2 0x806 SWAP2 SWAP1 PUSH2 0xD18 JUMP JUMPDEST SWAP2 POP POP PUSH2 0x9BA JUMP JUMPDEST PUSH1 0x2 DUP4 EQ ISZERO PUSH2 0x9AB JUMPI PUSH1 0x0 PUSH20 0x0 PUSH4 0x722DE8B PUSH1 0x0 CALLER PUSH1 0x1 PUSH1 0x40 MLOAD DUP5 PUSH4 0xFFFFFFFF AND PUSH1 0xE0 SHL DUP2 MSTORE PUSH1 0x4 ADD PUSH2 0x856 SWAP4 SWAP3 SWAP2 SWAP1 PUSH2 0xF37 JUMP JUMPDEST PUSH1 0x20 PUSH1 0x40 MLOAD DUP1 DUP4 SUB DUP2 DUP7 DUP1 EXTCODESIZE ISZERO DUP1 ISZERO PUSH2 0x86E JUMPI PUSH1 0x0 DUP1 REVERT JUMPDEST POP GAS DELEGATECALL ISZERO DUP1 ISZERO PUSH2 0x882 JUMPI RETURNDATASIZE PUSH1 0x0 DUP1 RETURNDATACOPY RETURNDATASIZE PUSH1 0x0 REVERT JUMPDEST POP POP POP POP PUSH1 0x40 MLOAD RETURNDATASIZE PUSH1 0x1F NOT PUSH1 0x1F DUP3 ADD AND DUP3 ADD DUP1 PUSH1 0x40 MSTORE POP DUP2 ADD SWAP1 PUSH2 0x8A6 SWAP2 SWAP1 PUSH2 0xD6A JUMP JUMPDEST SWAP1 POP DUP3 DUP2 LT ISZERO PUSH2 0x8B5 JUMPI PUSH1 0x0 DUP1 REVERT JUMPDEST CALLVALUE PUSH1 0x3 PUSH1 0x2 DUP2 SLOAD DUP2 LT PUSH2 0x8F1 JUMPI PUSH32 0x4E487B7100000000000000000000000000000000000000000000000000000000 PUSH1 0x0 MSTORE PUSH1 0x32 PUSH1 0x4 MSTORE PUSH1 0x24 PUSH1 0x0 REVERT JUMPDEST SWAP1 PUSH1 0x0 MSTORE PUSH1 0x20 PUSH1 0x0 KECCAK256 ADD PUSH1 0x0 ADD PUSH1 0x0 DUP3 DUP3 SLOAD PUSH2 0x90D SWAP2 SWAP1 PUSH2 0x1153 JUMP JUMPDEST SWAP3 POP POP DUP2 SWAP1 SSTORE POP PUSH20 0x0 PUSH4 0xEDBC4AA7 PUSH1 0x0 CALLER PUSH1 0x4 DUP8 PUSH1 0x40 MLOAD DUP6 PUSH4 0xFFFFFFFF AND PUSH1 0xE0 SHL DUP2 MSTORE PUSH1 0x4 ADD PUSH2 0x953 SWAP5 SWAP4 SWAP3 SWAP2 SWAP1 PUSH2 0x103D JUMP JUMPDEST PUSH1 0x20 PUSH1 0x40 MLOAD DUP1 DUP4 SUB DUP2 DUP7 DUP1 EXTCODESIZE ISZERO DUP1 ISZERO PUSH2 0x96B JUMPI PUSH1 0x0 DUP1 REVERT JUMPDEST POP GAS DELEGATECALL ISZERO DUP1 ISZERO PUSH2 0x97F JUMPI RETURNDATASIZE PUSH1 0x0 DUP1 RETURNDATACOPY RETURNDATASIZE PUSH1 0x0 REVERT JUMPDEST POP POP POP POP PUSH1 0x40 MLOAD RETURNDATASIZE PUSH1 0x1F NOT PUSH1 0x1F DUP3 ADD AND DUP3 ADD DUP1 PUSH1 0x40 MSTORE POP DUP2 ADD SWAP1 PUSH2 0x9A3 SWAP2 SWAP1 PUSH2 0xD18 JUMP JUMPDEST SWAP2 POP POP PUSH2 0x9BA JUMP JUMPDEST PUSH2 0x9B9 JUMP JUMPDEST PUSH1 0x0 SWAP1 POP PUSH2 0x9BA JUMP JUMPDEST JUMPDEST SWAP3 SWAP2 POP POP JUMP JUMPDEST PUSH1 0x0 PUSH1 0x4 PUSH1 0x0 SWAP1 SLOAD SWAP1 PUSH2 0x100 EXP SWAP1 DIV PUSH20 0xFFFFFFFFFFFFFFFFFFFFFFFFFFFFFFFFFFFFFFFF AND PUSH20 0xFFFFFFFFFFFFFFFFFFFFFFFFFFFFFFFFFFFFFFFF AND CALLER PUSH20 0xFFFFFFFFFFFFFFFFFFFFFFFFFFFFFFFFFFFFFFFF AND EQ PUSH2 0xA1C JUMPI PUSH1 0x0 DUP1 REVERT JUMPDEST PUSH1 0x0 DUP1 PUSH20 0x0 PUSH4 0x7ABA1DE4 PUSH1 0x0 PUSH1 0x40 MLOAD DUP3 PUSH4 0xFFFFFFFF AND PUSH1 0xE0 SHL DUP2 MSTORE PUSH1 0x4 ADD PUSH2 0xA57 SWAP2 SWAP1 PUSH2 0xEF3 JUMP JUMPDEST PUSH1 0x20 PUSH1 0x40 MLOAD DUP1 DUP4 SUB DUP2 DUP7 DUP1 EXTCODESIZE ISZERO DUP1 ISZERO PUSH2 0xA6F JUMPI PUSH1 0x0 DUP1 REVERT JUMPDEST POP GAS DELEGATECALL ISZERO DUP1 ISZERO PUSH2 0xA83 JUMPI RETURNDATASIZE PUSH1 0x0 DUP1 RETURNDATACOPY RETURNDATASIZE PUSH1 0x0 REVERT JUMPDEST POP POP POP POP PUSH1 0x40 MLOAD RETURNDATASIZE PUSH1 0x1F NOT PUSH1 0x1F DUP3 ADD AND DUP3 ADD DUP1 PUSH1 0x40 MSTORE POP DUP2 ADD SWAP1 PUSH2 0xAA7 SWAP2 SWAP1 PUSH2 0xD6A JUMP JUMPDEST SWAP1 POP JUMPDEST PUSH20 0x0 PUSH4 0x8A84CC0E PUSH1 0x0 DUP4 PUSH1 0x40 MLOAD DUP4 PUSH4 0xFFFFFFFF AND PUSH1 0xE0 SHL DUP2 MSTORE PUSH1 0x4 ADD PUSH2 0xAE4 SWAP3 SWAP2 SWAP1 PUSH2 0x10B9 JUMP JUMPDEST PUSH1 0x20 PUSH1 0x40 MLOAD DUP1 DUP4 SUB DUP2 DUP7 DUP1 EXTCODESIZE ISZERO DUP1 ISZERO PUSH2 0xAFC JUMPI PUSH1 0x0 DUP1 REVERT JUMPDEST POP GAS DELEGATECALL ISZERO DUP1 ISZERO PUSH2 0xB10 JUMPI RETURNDATASIZE PUSH1 0x0 DUP1 RETURNDATACOPY RETURNDATASIZE PUSH1 0x0 REVERT JUMPDEST POP POP POP POP PUSH1 0x40 MLOAD RETURNDATASIZE PUSH1 0x1F NOT PUSH1 0x1F DUP3 ADD AND DUP3 ADD DUP1 PUSH1 0x40 MSTORE POP DUP2 ADD SWAP1 PUSH2 0xB34 SWAP2 SWAP1 PUSH2 0xD18 JUMP JUMPDEST ISZERO PUSH2 0xC6B JUMPI PUSH1 0x0 PUSH20 0x0 PUSH4 0x7C6F403B PUSH1 0x0 DUP5 PUSH1 0x40 MLOAD DUP4 PUSH4 0xFFFFFFFF AND PUSH1 0xE0 SHL DUP2 MSTORE PUSH1 0x4 ADD PUSH2 0xB75 SWAP3 SWAP2 SWAP1 PUSH2 0x10B9 JUMP JUMPDEST PUSH1 0x40 DUP1 MLOAD DUP1 DUP4 SUB DUP2 DUP7 DUP1 EXTCODESIZE ISZERO DUP1 ISZERO PUSH2 0xB8C JUMPI PUSH1 0x0 DUP1 REVERT JUMPDEST POP GAS DELEGATECALL ISZERO DUP1 ISZERO PUSH2 0xBA0 JUMPI RETURNDATASIZE PUSH1 0x0 DUP1 RETURNDATACOPY RETURNDATASIZE PUSH1 0x0 REVERT JUMPDEST POP POP POP POP PUSH1 0x40 MLOAD RETURNDATASIZE PUSH1 0x1F NOT PUSH1 0x1F DUP3 ADD AND DUP3 ADD DUP1 PUSH1 0x40 MSTORE POP DUP2 ADD SWAP1 PUSH2 0xBC4 SWAP2 SWAP1 PUSH2 0xCDC JUMP JUMPDEST SWAP2 POP POP DUP1 PUSH1 0x2 ADD SLOAD DUP4 PUSH2 0xBD7 SWAP2 SWAP1 PUSH2 0x10FD JUMP JUMPDEST SWAP3 POP POP PUSH20 0x0 PUSH4 0x1CA74EDB PUSH1 0x0 DUP4 PUSH1 0x40 MLOAD DUP4 PUSH4 0xFFFFFFFF AND PUSH1 0xE0 SHL DUP2 MSTORE PUSH1 0x4 ADD PUSH2 0xC14 SWAP3 SWAP2 SWAP1 PUSH2 0x10B9 JUMP JUMPDEST PUSH1 0x20 PUSH1 0x40 MLOAD DUP1 DUP4 SUB DUP2 DUP7 DUP1 EXTCODESIZE ISZERO DUP1 ISZERO PUSH2 0xC2C JUMPI PUSH1 0x0 DUP1 REVERT JUMPDEST POP GAS DELEGATECALL ISZERO DUP1 ISZERO PUSH2 0xC40 JUMPI RETURNDATASIZE PUSH1 0x0 DUP1 RETURNDATACOPY RETURNDATASIZE PUSH1 0x0 REVERT JUMPDEST POP POP POP POP PUSH1 0x40 MLOAD RETURNDATASIZE PUSH1 0x1F NOT PUSH1 0x1F DUP3 ADD AND DUP3 ADD DUP1 PUSH1 0x40 MSTORE POP DUP2 ADD SWAP1 PUSH2 0xC64 SWAP2 SWAP1 PUSH2 0xD6A JUMP JUMPDEST SWAP1 POP PUSH2 0xAAA JUMP JUMPDEST POP DUP1 SWAP2 POP POP SWAP1 JUMP JUMPDEST PUSH1 0x0 DUP2 MLOAD SWAP1 POP PUSH2 0xC82 DUP2 PUSH2 0x1250 JUMP JUMPDEST SWAP3 SWAP2 POP POP JUMP JUMPDEST PUSH1 0x0 DUP2 MLOAD SWAP1 POP PUSH2 0xC97 DUP2 PUSH2 0x1267 JUMP JUMPDEST SWAP3 SWAP2 POP POP JUMP JUMPDEST PUSH1 0x0 DUP2 MLOAD SWAP1 POP PUSH2 0xCAC DUP2 PUSH2 0x127E JUMP JUMPDEST SWAP3 SWAP2 POP POP JUMP JUMPDEST PUSH1 0x0 DUP2 CALLDATALOAD SWAP1 POP PUSH2 0xCC1 DUP2 PUSH2 0x1295 JUMP JUMPDEST SWAP3 SWAP2 POP POP JUMP JUMPDEST PUSH1 0x0 DUP2 MLOAD SWAP1 POP PUSH2 0xCD6 DUP2 PUSH2 0x1295 JUMP JUMPDEST SWAP3 SWAP2 POP POP JUMP JUMPDEST PUSH1 0x0 DUP1 PUSH1 0x40 DUP4 DUP6 SUB SLT ISZERO PUSH2 0xCEF JUMPI PUSH1 0x0 DUP1 REVERT JUMPDEST PUSH1 0x0 PUSH2 0xCFD DUP6 DUP3 DUP7 ADD PUSH2 0xC73 JUMP JUMPDEST SWAP3 POP POP PUSH1 0x20 PUSH2 0xD0E DUP6 DUP3 DUP7 ADD PUSH2 0xC9D JUMP JUMPDEST SWAP2 POP POP SWAP3 POP SWAP3 SWAP1 POP JUMP JUMPDEST PUSH1 0x0 PUSH1 0x20 DUP3 DUP5 SUB SLT ISZERO PUSH2 0xD2A JUMPI PUSH1 0x0 DUP1 REVERT JUMPDEST PUSH1 0x0 PUSH2 0xD38 DUP5 DUP3 DUP6 ADD PUSH2 0xC88 JUMP JUMPDEST SWAP2 POP POP SWAP3 SWAP2 POP POP JUMP JUMPDEST PUSH1 0x0 PUSH1 0x20 DUP3 DUP5 SUB SLT ISZERO PUSH2 0xD53 JUMPI PUSH1 0x0 DUP1 REVERT JUMPDEST PUSH1 0x0 PUSH2 0xD61 DUP5 DUP3 DUP6 ADD PUSH2 0xCB2 JUMP JUMPDEST SWAP2 POP POP SWAP3 SWAP2 POP POP JUMP JUMPDEST PUSH1 0x0 PUSH1 0x20 DUP3 DUP5 SUB SLT ISZERO PUSH2 0xD7C JUMPI PUSH1 0x0 DUP1 REVERT JUMPDEST PUSH1 0x0 PUSH2 0xD8A DUP5 DUP3 DUP6 ADD PUSH2 0xCC7 JUMP JUMPDEST SWAP2 POP POP SWAP3 SWAP2 POP POP JUMP JUMPDEST PUSH1 0x0 DUP1 PUSH1 0x40 DUP4 DUP6 SUB SLT ISZERO PUSH2 0xDA6 JUMPI PUSH1 0x0 DUP1 REVERT JUMPDEST PUSH1 0x0 PUSH2 0xDB4 DUP6 DUP3 DUP7 ADD PUSH2 0xCB2 JUMP JUMPDEST SWAP3 POP POP PUSH1 0x20 PUSH2 0xDC5 DUP6 DUP3 DUP7 ADD PUSH2 0xCB2 JUMP JUMPDEST SWAP2 POP POP SWAP3 POP SWAP3 SWAP1 POP JUMP JUMPDEST PUSH2 0xDD8 DUP2 PUSH2 0x1187 JUMP JUMPDEST DUP3 MSTORE POP POP JUMP JUMPDEST PUSH2 0xDE7 DUP2 PUSH2 0x1187 JUMP JUMPDEST DUP3 MSTORE POP POP JUMP JUMPDEST PUSH2 0xDF6 DUP2 PUSH2 0x1187 JUMP JUMPDEST DUP3 MSTORE POP POP JUMP JUMPDEST PUSH2 0xE05 DUP2 PUSH2 0x1199 JUMP JUMPDEST DUP3 MSTORE POP POP JUMP JUMPDEST PUSH2 0xE14 DUP2 PUSH2 0x11D9 JUMP JUMPDEST DUP3 MSTORE POP POP JUMP JUMPDEST PUSH2 0xE23 DUP2 PUSH2 0x11EB JUMP JUMPDEST DUP3 MSTORE POP POP JUMP JUMPDEST PUSH2 0xE32 DUP2 PUSH2 0x11FD JUMP JUMPDEST DUP3 MSTORE POP POP JUMP JUMPDEST PUSH2 0xE41 DUP2 PUSH2 0x120F JUMP JUMPDEST DUP3 MSTORE POP POP JUMP JUMPDEST PUSH1 0x60 DUP3 ADD PUSH1 0x0 DUP3 ADD MLOAD PUSH2 0xE5D PUSH1 0x0 DUP6 ADD DUP3 PUSH2 0xDED JUMP JUMPDEST POP PUSH1 0x20 DUP3 ADD MLOAD PUSH2 0xE70 PUSH1 0x20 DUP6 ADD DUP3 PUSH2 0xEAE JUMP JUMPDEST POP PUSH1 0x40 DUP3 ADD MLOAD PUSH2 0xE83 PUSH1 0x40 DUP6 ADD DUP3 PUSH2 0xEAE JUMP JUMPDEST POP POP POP POP JUMP JUMPDEST DUP1 DUP3 MSTORE POP POP JUMP JUMPDEST PUSH2 0xE99 DUP2 PUSH2 0x11CF JUMP JUMPDEST DUP3 MSTORE POP POP JUMP JUMPDEST PUSH2 0xEA8 DUP2 PUSH2 0x11CF JUMP JUMPDEST DUP3 MSTORE POP POP JUMP JUMPDEST PUSH2 0xEB7 DUP2 PUSH2 0x11CF JUMP JUMPDEST DUP3 MSTORE POP POP JUMP JUMPDEST PUSH1 0x0 PUSH1 0x20 DUP3 ADD SWAP1 POP PUSH2 0xED2 PUSH1 0x0 DUP4 ADD DUP5 PUSH2 0xDCF JUMP JUMPDEST SWAP3 SWAP2 POP POP JUMP JUMPDEST PUSH1 0x0 PUSH1 0x20 DUP3 ADD SWAP1 POP PUSH2 0xEED PUSH1 0x0 DUP4 ADD DUP5 PUSH2 0xDFC JUMP JUMPDEST SWAP3 SWAP2 POP POP JUMP JUMPDEST PUSH1 0x0 PUSH1 0x20 DUP3 ADD SWAP1 POP PUSH2 0xF08 PUSH1 0x0 DUP4 ADD DUP5 PUSH2 0xE89 JUMP JUMPDEST SWAP3 SWAP2 POP POP JUMP JUMPDEST PUSH1 0x0 PUSH1 0x40 DUP3 ADD SWAP1 POP PUSH2 0xF23 PUSH1 0x0 DUP4 ADD DUP6 PUSH2 0xE89 JUMP JUMPDEST PUSH2 0xF30 PUSH1 0x20 DUP4 ADD DUP5 PUSH2 0xDDE JUMP JUMPDEST SWAP4 SWAP3 POP POP POP JUMP JUMPDEST PUSH1 0x0 PUSH1 0x60 DUP3 ADD SWAP1 POP PUSH2 0xF4C PUSH1 0x0 DUP4 ADD DUP7 PUSH2 0xE89 JUMP JUMPDEST PUSH2 0xF59 PUSH1 0x20 DUP4 ADD DUP6 PUSH2 0xDDE JUMP JUMPDEST PUSH2 0xF66 PUSH1 0x40 DUP4 ADD DUP5 PUSH2 0xE0B JUMP JUMPDEST SWAP5 SWAP4 POP POP POP POP JUMP JUMPDEST PUSH1 0x0 PUSH1 0x80 DUP3 ADD SWAP1 POP PUSH2 0xF83 PUSH1 0x0 DUP4 ADD DUP8 PUSH2 0xE89 JUMP JUMPDEST PUSH2 0xF90 PUSH1 0x20 DUP4 ADD DUP7 PUSH2 0xDDE JUMP JUMPDEST PUSH2 0xF9D PUSH1 0x40 DUP4 ADD DUP6 PUSH2 0xE0B JUMP JUMPDEST PUSH2 0xFAA PUSH1 0x60 DUP4 ADD DUP5 PUSH2 0xE9F JUMP JUMPDEST SWAP6 SWAP5 POP POP POP POP POP JUMP JUMPDEST PUSH1 0x0 PUSH1 0x80 DUP3 ADD SWAP1 POP PUSH2 0xFC8 PUSH1 0x0 DUP4 ADD DUP8 PUSH2 0xE89 JUMP JUMPDEST PUSH2 0xFD5 PUSH1 0x20 DUP4 ADD DUP7 PUSH2 0xDDE JUMP JUMPDEST PUSH2 0xFE2 PUSH1 0x40 DUP4 ADD DUP6 PUSH2 0xE1A JUMP JUMPDEST PUSH2 0xFEF PUSH1 0x60 DUP4 ADD DUP5 PUSH2 0xE9F JUMP JUMPDEST SWAP6 SWAP5 POP POP POP POP POP JUMP JUMPDEST PUSH1 0x0 PUSH1 0x80 DUP3 ADD SWAP1 POP PUSH2 0x100D PUSH1 0x0 DUP4 ADD DUP8 PUSH2 0xE89 JUMP JUMPDEST PUSH2 0x101A PUSH1 0x20 DUP4 ADD DUP7 PUSH2 0xDDE JUMP JUMPDEST PUSH2 0x1027 PUSH1 0x40 DUP4 ADD DUP6 PUSH2 0xE29 JUMP JUMPDEST PUSH2 0x1034 PUSH1 0x60 DUP4 ADD DUP5 PUSH2 0xE9F JUMP JUMPDEST SWAP6 SWAP5 POP POP POP POP POP JUMP JUMPDEST PUSH1 0x0 PUSH1 0x80 DUP3 ADD SWAP1 POP PUSH2 0x1052 PUSH1 0x0 DUP4 ADD DUP8 PUSH2 0xE89 JUMP JUMPDEST PUSH2 0x105F PUSH1 0x20 DUP4 ADD DUP7 PUSH2 0xDDE JUMP JUMPDEST PUSH2 0x106C PUSH1 0x40 DUP4 ADD DUP6 PUSH2 0xE38 JUMP JUMPDEST PUSH2 0x1079 PUSH1 0x60 DUP4 ADD DUP5 PUSH2 0xE9F JUMP JUMPDEST SWAP6 SWAP5 POP POP POP POP POP JUMP JUMPDEST PUSH1 0x0 PUSH1 0xA0 DUP3 ADD SWAP1 POP PUSH2 0x1097 PUSH1 0x0 DUP4 ADD DUP7 PUSH2 0xE89 JUMP JUMPDEST PUSH2 0x10A4 PUSH1 0x20 DUP4 ADD DUP6 PUSH2 0xDDE JUMP JUMPDEST PUSH2 0x10B1 PUSH1 0x40 DUP4 ADD DUP5 PUSH2 0xE47 JUMP JUMPDEST SWAP5 SWAP4 POP POP POP POP JUMP JUMPDEST PUSH1 0x0 PUSH1 0x40 DUP3 ADD SWAP1 POP PUSH2 0x10CE PUSH1 0x0 DUP4 ADD DUP6 PUSH2 0xE89 JUMP JUMPDEST PUSH2 0x10DB PUSH1 0x20 DUP4 ADD DUP5 PUSH2 0xE9F JUMP JUMPDEST SWAP4 SWAP3 POP POP POP JUMP JUMPDEST PUSH1 0x0 PUSH1 0x20 DUP3 ADD SWAP1 POP PUSH2 0x10F7 PUSH1 0x0 DUP4 ADD DUP5 PUSH2 0xE90 JUMP JUMPDEST SWAP3 SWAP2 POP POP JUMP JUMPDEST PUSH1 0x0 PUSH2 0x1108 DUP3 PUSH2 0x11CF JUMP JUMPDEST SWAP2 POP PUSH2 0x1113 DUP4 PUSH2 0x11CF JUMP JUMPDEST SWAP3 POP DUP3 PUSH32 0xFFFFFFFFFFFFFFFFFFFFFFFFFFFFFFFFFFFFFFFFFFFFFFFFFFFFFFFFFFFFFFFF SUB DUP3 GT ISZERO PUSH2 0x1148 JUMPI PUSH2 0x1147 PUSH2 0x1221 JUMP JUMPDEST JUMPDEST DUP3 DUP3 ADD SWAP1 POP SWAP3 SWAP2 POP POP JUMP JUMPDEST PUSH1 0x0 PUSH2 0x115E DUP3 PUSH2 0x11CF JUMP JUMPDEST SWAP2 POP PUSH2 0x1169 DUP4 PUSH2 0x11CF JUMP JUMPDEST SWAP3 POP DUP3 DUP3 LT ISZERO PUSH2 0x117C JUMPI PUSH2 0x117B PUSH2 0x1221 JUMP JUMPDEST JUMPDEST DUP3 DUP3 SUB SWAP1 POP SWAP3 SWAP2 POP POP JUMP JUMPDEST PUSH1 0x0 PUSH2 0x1192 DUP3 PUSH2 0x11AF JUMP JUMPDEST SWAP1 POP SWAP2 SWAP1 POP JUMP JUMPDEST PUSH1 0x0 DUP2 ISZERO ISZERO SWAP1 POP SWAP2 SWAP1 POP JUMP JUMPDEST PUSH1 0x0 DUP2 SWAP1 POP SWAP2 SWAP1 POP JUMP JUMPDEST PUSH1 0x0 PUSH20 0xFFFFFFFFFFFFFFFFFFFFFFFFFFFFFFFFFFFFFFFF DUP3 AND SWAP1 POP SWAP2 SWAP1 POP JUMP JUMPDEST PUSH1 0x0 DUP2 SWAP1 POP SWAP2 SWAP1 POP JUMP JUMPDEST PUSH1 0x0 PUSH2 0x11E4 DUP3 PUSH2 0x11CF JUMP JUMPDEST SWAP1 POP SWAP2 SWAP1 POP JUMP JUMPDEST PUSH1 0x0 PUSH2 0x11F6 DUP3 PUSH2 0x11CF JUMP JUMPDEST SWAP1 POP SWAP2 SWAP1 POP JUMP JUMPDEST PUSH1 0x0 PUSH2 0x1208 DUP3 PUSH2 0x11CF JUMP JUMPDEST SWAP1 POP SWAP2 SWAP1 POP JUMP JUMPDEST PUSH1 0x0 PUSH2 0x121A DUP3 PUSH2 0x11CF JUMP JUMPDEST SWAP1 POP SWAP2 SWAP1 POP JUMP JUMPDEST PUSH32 0x4E487B7100000000000000000000000000000000000000000000000000000000 PUSH1 0x0 MSTORE PUSH1 0x11 PUSH1 0x4 MSTORE PUSH1 0x24 PUSH1 0x0 REVERT JUMPDEST PUSH2 0x1259 DUP2 PUSH2 0x1187 JUMP JUMPDEST DUP2 EQ PUSH2 0x1264 JUMPI PUSH1 0x0 DUP1 REVERT JUMPDEST POP JUMP JUMPDEST PUSH2 0x1270 DUP2 PUSH2 0x1199 JUMP JUMPDEST DUP2 EQ PUSH2 0x127B JUMPI PUSH1 0x0 DUP1 REVERT JUMPDEST POP JUMP JUMPDEST PUSH2 0x1287 DUP2 PUSH2 0x11A5 JUMP JUMPDEST DUP2 EQ PUSH2 0x1292 JUMPI PUSH1 0x0 DUP1 REVERT JUMPDEST POP JUMP JUMPDEST PUSH2 0x129E DUP2 PUSH2 0x11CF JUMP JUMPDEST DUP2 EQ PUSH2 0x12A9 JUMPI PUSH1 0x0 DUP1 REVERT JUMPDEST POP JUMP INVALID LOG2 PUSH5 0x6970667358 0x22 SLT KECCAK256 POP 0xAC SWAP13 CHAINID EXP 0x48 PUSH6 0x1160AA17A087 DUP10 TIMESTAMP 0x2B 0xEC 0xE4 PUSH13 0x49F5E471372E9068D47C5A86F2 PUSH5 0x736F6C6343 STOP ADDMOD SUB STOP CALLER "
		},
		"gasEstimates": {
			"creation": {
				"codeDepositCost": "966800",
				"executionCost": "1008",
				"totalCost": "967808"
			},
			"external": {
				"contractManager()": "21054",
				"getHighLevelAmount()": "2906",
				"getLowLevelAmount()": "infinite",
				"manager()": "1236",
				"placeBet(uint256)": "infinite",
				"removeBet(uint256,uint256)": "infinite"
			}
		},
		"methodIdentifiers": {
			"contractManager()": "b39e12cf",
			"getHighLevelAmount()": "2f4efc1f",
			"getLowLevelAmount()": "fb4a2b7a",
			"manager()": "481c6a75",
			"placeBet(uint256)": "10fe7c48",
			"removeBet(uint256,uint256)": "f4e41246"
		}
	},
	"abi": [
		{
			"inputs": [],
			"name": "contractManager",
			"outputs": [],
			"stateMutability": "nonpayable",
			"type": "function"
		},
		{
			"inputs": [],
			"name": "getHighLevelAmount",
			"outputs": [
				{
					"internalType": "uint256",
					"name": "",
					"type": "uint256"
				}
			],
			"stateMutability": "view",
			"type": "function"
		},
		{
			"inputs": [],
			"name": "getLowLevelAmount",
			"outputs": [
				{
					"internalType": "uint256",
					"name": "",
					"type": "uint256"
				}
			],
			"stateMutability": "view",
			"type": "function"
		},
		{
			"inputs": [],
			"name": "manager",
			"outputs": [
				{
					"internalType": "address",
					"name": "",
					"type": "address"
				}
			],
			"stateMutability": "view",
			"type": "function"
		},
		{
			"inputs": [
				{
					"internalType": "uint256",
					"name": "_betClass",
					"type": "uint256"
				}
			],
			"name": "placeBet",
			"outputs": [
				{
					"internalType": "bool",
					"name": "success",
					"type": "bool"
				}
			],
			"stateMutability": "payable",
			"type": "function"
		},
		{
			"inputs": [
				{
					"internalType": "uint256",
					"name": "_betClass",
					"type": "uint256"
				},
				{
					"internalType": "uint256",
					"name": "removeAmount",
					"type": "uint256"
				}
			],
			"name": "removeBet",
			"outputs": [
				{
					"internalType": "bool",
					"name": "success",
					"type": "bool"
				}
			],
			"stateMutability": "payable",
			"type": "function"
		}
	]
}